:020000040800F2
:1000000008040020050100085704000875010008D5
:100010005504000871010008DF040008000000001A
:100020000000000000000000000000005B04000869
:100030007301000800000000590400085D04000876
:100040001F0100081F0100081F0100081F01000810
:100050001F0100081F0100081F0100081F01000800
:100060001F0100081F0100081F0100081F010008F0
:100070001F0100081F0100081F0100081F010008E0
:100080001F0100081F0100081F0100081F010008D0
:100090001F0100081F0100081F0100081F010008C0
:1000A0001F0100081F0100081F0100081F010008B0
:1000B0001F0100081F0100081F0100081F010008A0
:1000C0001F0100081F0100081F0100081F01000890
:1000D0001F0100081F0100081F0100081F01000880
:1000E0001F0100081F0100081F010008DFF810D0E1
:1000F00000F02CF80048004701050008AFF300802D
:10010000080400200648804706480047FEE7FEE74F
:10011000FEE7FEE7FEE7FEE7FEE7FEE7FEE7FEE7B7
:10012000DD040008ED000008D2B201E000F8012B68
:10013000491EFBD270470022F6E710B513460A4667
:1001400004461946FFF7F0FF204610BD064C074D48
:1001500006E0E06840F0010394E807009847103497
:10016000AC42F6D3FFF7C6FFE80500080806000812
:10017000FEE77047FEE700000D4B10B59B680022BC
:100180000C4C03F00103A46804F00104234302D0E3
:100190000122104610BD096829B1436823F4702379
:1001A0000B434360F5E7416821F470214160F0E7BB
:1001B000002401400028014010B58368002213F09C
:1001C000010F02D00122104610BD43684C6823F491
:1001D0008073234343608368096823F400630B43FF
:1001E0008360F0E770B54B688468002214F0010F5B
:1001F00002D00122104670BD33B18C68234344689D
:1002000024F46844234302E0436823F468434360D2
:10021000CC680B68856823430C69064E35402C4337
:10022000234383604968C36A23F470030B43C362AA
:10023000E0E70000FDFEF1FF044908B58A690243CA
:100240008A6189690140009108BD000000100240E8
:10025000F0B50A68C2F30F2595FAA5F2B2FA82F357
:1002600069E001229A402A4264D0082B03D240F26E
:1002700001129A4006E0A3F108024FF001149440E5
:1002800044F080624C68082C0BD10C69C668170AD0
:1002900097FAA7F7B7FA87F726EA1226BC40264353
:1002A000C66092FAA2F700EB1264B7FA87F74FEA3A
:1002B000870C0F27266807FA0CF7BE4392FAA2F7BD
:1002C000D1F804E0B7FA87F7BF000EFA07FE46EA56
:1002D0000E0626604F68012F01D0092F2AD192FA0D
:1002E000A2F7B7FA87F74FEA870C032707FA0CF74C
:1002F000BE4392FAA2F7B7FA87F7D1F808E0BF0039
:100300000EFA07FE92FAA2FC46EA0E06BCFA8CFC34
:100310004FEA8C0E4FF0040C26600CFA0EFC92FA99
:10032000A2F2B2FA82F2CF68920026EA0C06974057
:100330003E4326605B1C35FA03F292D10020F0BDEB
:100340004FF47A71B0FBF1F14FF0E020491E4161AA
:1003500000218161052101617047000001490860A9
:10036000704700000400002008B54FF0E0210A6942
:100370000092421C00D0401C0A69D20300D5401EE6
:100380000028F9D108BD000070B58EB000240A9491
:100390000B94142168460C94FFF7CDFE142105A898
:1003A000FFF7C9FE4FF400752846FFF745FF04200C
:1003B000FFF742FF40F20110CDE9050405A92348EB
:1003C000FFF746FF224E0A940AA930460B94FFF726
:1003D000F3FE0CA930460C94FFF7CEFE4FF46020DC
:1003E000CDE900040220CDE902406946304604947C
:1003F000FFF7F8FE4FF4407191FAA1F12804B1FA29
:1004000081F1CD4006EB8501CA6A22F01F02CA6263
:1004100090FAA0F1B1FA81F1C84006EB8000C16802
:100420004FF0F87292FAA2F3B3FA83F324FA03F3CB
:1004300007259D4092FAA2F2B2FA82F224FA02F261
:10044000A94394402143C1600EB070BD0008014033
:1004500000240140FEE77047704770477047000076
:1004600070B51B48016821F0070101600068194C54
:10047000206820F0F80040F080002060206840F004
:10048000010020602068C0F340000028FAD06068B6
:1004900020F0F0006060606820F4E06060606068F8
:1004A00020F460506060606820F003006060606865
:1004B00010F00C0FFBD1084D2846FFF741FF2846EE
:1004C000FFF74CFF606820F44040606070BD0000A2
:1004D000002002400010024000127A007047FEE740
:1004E00002E008C8121F08C1002AFAD170477047FD
:1004F000002001E001C1121F002AFBD1704700005B
:1005000086B00120FFF798FE2F48C16941F0805165
:10051000C161C0692D4900F08050009008684FF615
:10052000FF0210402A4A40F44070104308602948F6
:10053000416821F0E0614160416841F00071416033
:10054000FFF78EFF14216846FFF7F5FD1020FFF737
:1005500073FE0420FFF770FE204D1F494FF4005634
:1005600028466E6100910121019102210291002132
:1005700003916946FFF76CFEFFF706FF184CA06871
:1005800040F00400A060A068C0F380000028FAD00A
:10059000A06840F00100A060A06840F4A000A06046
:1005A000104F4FF4FA686420FFF7DEFEE06C3880ED
:1005B0002068C0F340000028FAD03888404501D2B6
:1005C0006E61F0E72E61EEE7001002400CED00E0F6
:1005D0000000FA0500000140200020040010014046
:1005E0000024014000000020080600080000002050
:1005F00008000000E00400081006000808000020C1
:1006000000040000F0040008000000000024F400D2
:04000005080000ED02
:00000001FF
