:020000040800F2
:100000000804002005010008BB0300087501000872
:10001000B90300087101000869040008000000002D
:10002000000000000000000000000000BF03000806
:100030007301000800000000BD030008C1030008B0
:100040001F0100081F0100081F0100081F01000810
:100050001F0100081F0100081F0100081F01000800
:100060001F0100081F0100081F0100081F010008F0
:100070001F0100081F0100081F0100081F010008E0
:100080001F0100081F0100081F0100081F010008D0
:100090001F0100081F0100081F0100081F010008C0
:1000A0001F0100081F0100081F0100081F010008B0
:1000B0001F0100081F0100083D0400081F0100087F
:1000C0001F0100081F0100081F0100081F01000890
:1000D0001F0100081F0100081F0100081F01000880
:1000E0001F0100081F0100081F010008DFF810D0E1
:1000F00000F02CF80048004789040008AFF30080A6
:10010000080400200648804706480047FEE7FEE74F
:10011000FEE7FEE7FEE7FEE7FEE7FEE7FEE7FEE7B7
:1001200039040008ED000008D2B201E000F8012B0C
:10013000491EFBD270470022F6E710B513460A4667
:1001400004461946FFF7F0FF204610BD064C074D48
:1001500006E0E06840F0010394E807009847103497
:10016000AC42F6D3FFF7C6FF2C0500084C0500088B
:10017000FEE77047FEE70000044908B5CA6902437C
:10018000CA61C9690140009108BD00000010024029
:10019000044908B58A6902438A618969014000916E
:1001A00008BD000000100240F0B50A68C2F30F2538
:1001B00095FAA5F2B2FA82F369E001229A402A4246
:1001C00064D0082B03D240F201129A4006E0A3F15A
:1001D00008024FF00114944044F080624C68082CEF
:1001E0000BD10C69C668170A97FAA7F7B7FA87F711
:1001F00026EA1226BC402643C66092FAA2F700EB1C
:100200001264B7FA87F74FEA870C0F27266807FAB8
:100210000CF7BE4392FAA2F7D1F804E0B7FA87F7D9
:10022000BF000EFA07FE46EA0E0626604F68012F51
:1002300001D0092F2AD192FAA2F7B7FA87F74FEA2D
:10024000870C032707FA0CF7BE4392FAA2F7B7FA16
:1002500087F7D1F808E0BF000EFA07FE92FAA2FC79
:1002600046EA0E06BCFA8CFC4FEA8C0E4FF0040CEA
:1002700026600CFA0EFC92FAA2F2B2FA82F2CF6871
:10028000920026EA0C0697403E4326605B1C35FA36
:1002900003F292D10020F0BD4FF47A71B0FBF1F17E
:1002A0004FF0E020491E416100218161052101617B
:1002B00070470000014908607047000000000020FE
:1002C000F0B50268154B164C164D4FF0804698421B
:1002D00005D0B04203D0A04201D0A84203D14F685C
:1002E00022F070023A43984205D0B04203D0A042B7
:1002F00001D0A84203D1CC6822F4407222430260AC
:100300008A68C2620A888262984201D109690163DF
:10031000416941F0010141610020F0BD002C014024
:10032000000400400008004010B586B01421684663
:10033000FFF701FF0420FFF71FFF1C480068C0F310
:100340000220011D072901D2002000E0C01E00226A
:1003500002FA00F10801164981F800044FF0E0218B
:100360004FF08040C1F8000140F2E730ADF80000E6
:1003700041F63F70CDE901200E4C694620460392BC
:10038000FFF79EFF206820F080002060A06844F204
:1003900007018843A060606820F070006060A0687A
:1003A00020F08000A06006B010BD00000CED00E061
:1003B0001EE000E000080040FEE77047704770470D
:1003C00070470000194810B5016821F0070101606D
:1003D00000681748016821F0F80141F080010160D0
:1003E000016841F0010101600168C1F34001002989
:1003F000FAD0416821F0F0014160416821F4E061E8
:100400004160416821F460514160416821F003017D
:100410004160416811F00C0FFBD1064C2046FFF7FC
:100420003BFF2046BDE81040FFF744BF00200240DC
:100430000010024000127A0070470000084801696D
:1004400011F0010F02D06FF0010101610549C86888
:100450004A14824300F4005042EA004008617047A9
:100460000008004000100140FEE702E008C8121F2B
:1004700008C1002AFAD170477047002001E001C18D
:10048000121F002AFBD1704786B00120FFF780FEC3
:100490004FF08050FFF770FE1E4908684FF6FF02CC
:1004A00010401D4A40F44070104308601B484168EA
:1004B00021F0E0614160416841F000714160FFF767
:1004C00081FF14216846FFF736FE1020FFF760FE1B
:1004D0000420FFF75DFE134811494FF400524261BA
:1004E00000910121019102210291002103916946AD
:1004F000FFF75AFEFFF718FF0B48016821F00201D1
:100500000160C16841F00101C160016841F0010171
:100510000160FEE70CED00E00000FA05000001407C
:100520002000200400100140000800404C05000895
:1005300000000020040000006A04000850050008C4
:1005400004000020040400007A0400080024F400E1
:04000005080000ED02
:00000001FF
