:020000040800F2
:100000000804002005010008BF020008750100086F
:10001000BD020008710100083F0300080000000055
:10002000000000000000000000000000C302000803
:100030007301000800000000C1020008C5020008AA
:100040001F0100081F0100081F0100081F01000810
:100050001F0100081F0100081F0100081F01000800
:100060001F0100081F0100081F0100081F010008F0
:100070001F0100081F0100081F0100081F010008E0
:100080001F0100081F0100081F0100081F010008D0
:100090001F0100081F0100081F0100081F010008C0
:1000A0001F0100081F0100081F0100081F010008B0
:1000B0001F0100081F0100081F0100081F010008A0
:1000C0001F0100081F0100081F0100081F01000890
:1000D0001F0100081F0100081F0100081F01000880
:1000E0001F0100081F0100081F010008DFF810D0E1
:1000F00000F02CF800480047C5030008AFF300806B
:10010000080400200648804706480047FEE7FEE74F
:10011000FEE7FEE7FEE7FEE7FEE7FEE7FEE7FEE7B7
:100120003D030008ED000008D2B201E000F8012B09
:10013000491EFBD270470022F6E710B513460A4667
:1001400004461946FFF7F0FF204610BD064C074D48
:1001500006E0E06840F0010394E807009847103497
:10016000AC42F6D3FFF7C6FF7404000894040008FD
:10017000FEE77047FEE70000044908B58A690243BC
:100180008A6189690140009108BD000000100240A9
:10019000F0B50A68C2F30F2595FAA5F2B2FA82F318
:1001A00069E001229A402A4264D0082B03D240F22F
:1001B00001129A4006E0A3F108024FF001149440A6
:1001C00044F080624C68082C0BD10C69C668170A91
:1001D00097FAA7F7B7FA87F726EA1226BC40264314
:1001E000C66092FAA2F700EB1264B7FA87F74FEAFB
:1001F000870C0F27266807FA0CF7BE4392FAA2F77E
:10020000D1F804E0B7FA87F7BF000EFA07FE46EA16
:100210000E0626604F68012F01D0092F2AD192FACD
:10022000A2F7B7FA87F74FEA870C032707FA0CF70C
:10023000BE4392FAA2F7B7FA87F7D1F808E0BF00F9
:100240000EFA07FE92FAA2FC46EA0E06BCFA8CFCF5
:100250004FEA8C0E4FF0040C26600CFA0EFC92FA5A
:10026000A2F2B2FA82F2CF68920026EA0C06974018
:100270003E4326605B1C35FA03F292D10020F0BDAC
:100280008068090A81430804000C01D000207047EF
:10029000012070474FF47A71B0FBF1F14FF0E0208C
:1002A000491E416100218161052101617047000003
:1002B000014908607047000004000020FEE7704715
:1002C0007047704770470000194810B5016821F069
:1002D0000701016000681748016821F0F80141F04A
:1002E00080010160016841F0010101600168C1F312
:1002F00040010029FAD0416821F0F00141604168D5
:1003000021F4E0614160416821F46051416041683D
:1003100021F003014160416811F00C0FFBD1064C44
:100320002046FFF7B7FF2046BDE81040FFF7C0BFEB
:10033000002002400010024000127A007047FEE7E1
:1003400002E008C8121F08C1002AFAD1704770479E
:10035000002001E001C1121F002AFBD170470000FC
:1003600070B5154C154D21462846FFF789FF010051
:10037000134A4FF0000001D0106070BD136844F6BE
:1003800020615B1C13608B42F7D926462C46106017
:1003900031462046FFF774FF0028F9D0E1684FF49A
:1003A000842088430104090C4FF4005001D02061DF
:1003B00070BD606170BD000040004004001001404D
:1003C0000000002086B00120FFF7D6FE2248C16958
:1003D00041F08051C161C069204900F08050009017
:1003E00008684FF6FF0210401D4A40F44070104369
:1003F00008601C48416821F0E0614160416841F0BB
:1004000000714160FFF760FF14216846FFF793FE1B
:100410001020FFF7B1FE0420FFF7AEFE134C124888
:100420004FF4005161610125CDE9000502200290E1
:100430000020039069462046FFF7AAFE0C48009072
:1004400008200190694604952046FFF7A1FE00BFF1
:10045000FFF786FFFCE70000001002400CED00E013
:100460000000FA05000001402000200400100140B7
:100470004000400494040008000000200800000030
:10048000400300089C04000808000020000400004D
:0C04900050030008000000000024F400ED
:04000005080000ED02
:00000001FF
