:020000040800F2
:100000000804002005010008C90200087501000865
:10001000C702000871010008470300080000000043
:10002000000000000000000000000000CD020008F9
:100030007301000800000000CB020008CF02000896
:100040001F0100081F0100081F0100081F01000810
:100050001F0100081F0100081F0100081F01000800
:100060001F0100081F0100081F0100081F010008F0
:100070001F0100081F0100081F0100081F010008E0
:100080001F0100081F0100081F0100081F010008D0
:100090001F0100081F0100081F0100081F010008C0
:1000A0001F0100081F0100081F0100081F010008B0
:1000B0001F0100081F0100081F0100081F010008A0
:1000C0001F0100081F0100081F0100081F01000890
:1000D0001F0100081F0100081F0100081F01000880
:1000E0001F0100081F0100081F010008DFF810D0E1
:1000F00000F02CF80048004769030008AFF30080C7
:10010000080400200648804706480047FEE7FEE74F
:10011000FEE7FEE7FEE7FEE7FEE7FEE7FEE7FEE7B7
:1001200045030008ED000008D2B201E000F8012B01
:10013000491EFBD270470022F6E710B513460A4667
:1001400004461946FFF7F0FF204610BD064C074D48
:1001500006E0E06840F0010394E807009847103497
:10016000AC42F6D3FFF7C6FF1004000830040008C5
:10017000FEE77047FEE70000044908B58A690243BC
:100180008A6189690140009108BD000000100240A9
:10019000F0B50A68C2F30F2595FAA5F2B2FA82F318
:1001A00069E001229A402A4264D0082B03D240F22F
:1001B00001129A4006E0A3F108024FF001149440A6
:1001C00044F080624C68082C0BD10C69C668170A91
:1001D00097FAA7F7B7FA87F726EA1226BC40264314
:1001E000C66092FAA2F700EB1264B7FA87F74FEAFB
:1001F000870C0F27266807FA0CF7BE4392FAA2F77E
:10020000D1F804E0B7FA87F7BF000EFA07FE46EA16
:100210000E0626604F68012F01D0092F2AD192FACD
:10022000A2F7B7FA87F74FEA870C032707FA0CF70C
:10023000BE4392FAA2F7B7FA87F7D1F808E0BF00F9
:100240000EFA07FE92FAA2FC46EA0E06BCFA8CFCF5
:100250004FEA8C0E4FF0040C26600CFA0EFC92FA5A
:10026000A2F2B2FA82F2CF68920026EA0C06974018
:100270003E4326605B1C35FA03F292D10020F0BDAC
:100280004FF47A71B0FBF1F14FF0E020491E41616B
:10029000002181610521016170470000014908606A
:1002A000704700000000002008B54FF0E0210A6907
:1002B0000092421C00D0401C0A69D20300D5401EA7
:1002C0000028F9D108BDFEE77047704770477047B6
:1002D000194810B5016821F007010160006817484E
:1002E000016821F0F80141F080010160016841F0EE
:1002F000010101600168C1F340010029FAD04168A1
:1003000021F0F0014160416821F4E0614160416801
:1003100021F460514160416821F00301416041686E
:1003200011F00C0FFBD1064C2046FFF7A9FF204629
:10033000BDE81040FFF7B2BF0020024000100240AD
:1003400000127A007047FEE702E008C8121F08C1D9
:10035000002AFAD170477047002001E001C1121F46
:10036000002AFBD17047000086B00120FFF704FF90
:100370002148C16941F08051C161C0691F4900F045
:100380008050009008684FF6FF0210401C4A40F46D
:100390004070104308601B48416821F0E0614160F3
:1003A000416841F000714160FFF792FF14216846F7
:1003B000FFF7C1FE1020FFF7DFFE0420FFF7DCFE91
:1003C000124C11494FF400552046656100910121FE
:1003D000019102210291002103916946FFF7D8FEA5
:1003E0004FF4FA763046FFF75FFF65616420FFF750
:1003F0005BFF2561F6E70000001002400CED00E015
:100400000000FA0500000140200020040010014017
:100410003004000800000020040000004803000829
:1004200034040008040000200404000058030008FD
:040430000024F400B0
:04000005080000ED02
:00000001FF
