:020000040800F2
:100000000804002005010008AB0200087501000883
:10001000A9020008710100082B030008000000007D
:10002000000000000000000000000000AF02000817
:100030007301000800000000AD020008B1020008D2
:100040001F0100081F0100081F0100081F01000810
:100050001F0100081F0100081F0100081F01000800
:100060001F0100081F0100081F0100081F010008F0
:100070001F0100081F0100081F0100081F010008E0
:100080001F0100081F0100081F0100081F010008D0
:100090001F0100081F0100081F0100081F010008C0
:1000A0001F0100081F0100081F0100081F010008B0
:1000B0001F0100081F0100081F0100081F010008A0
:1000C0001F0100081F0100081F0100081F01000890
:1000D0001F0100081F0100081F0100081F01000880
:1000E0001F0100081F0100081F010008DFF810D0E1
:1000F00000F02CF8004800474D030008AFF30080E3
:10010000080400200648804706480047FEE7FEE74F
:10011000FEE7FEE7FEE7FEE7FEE7FEE7FEE7FEE7B7
:1001200029030008ED000008D2B201E000F8012B1D
:10013000491EFBD270470022F6E710B513460A4667
:1001400004461946FFF7F0FF204610BD064C074D48
:1001500006E0E06840F0010394E807009847103497
:10016000AC42F6D3FFF7C6FF0804000828040008D5
:10017000FEE77047FEE70000044908B58A690243BC
:100180008A6189690140009108BD000000100240A9
:10019000F0B50A68C2F30F2595FAA5F2B2FA82F318
:1001A00069E001229A402A4264D0082B03D240F22F
:1001B00001129A4006E0A3F108024FF001149440A6
:1001C00044F080624C68082C0BD10C69C668170A91
:1001D00097FAA7F7B7FA87F726EA1226BC40264314
:1001E000C66092FAA2F700EB1264B7FA87F74FEAFB
:1001F000870C0F27266807FA0CF7BE4392FAA2F77E
:10020000D1F804E0B7FA87F7BF000EFA07FE46EA16
:100210000E0626604F68012F01D0092F2AD192FACD
:10022000A2F7B7FA87F74FEA870C032707FA0CF70C
:10023000BE4392FAA2F7B7FA87F7D1F808E0BF00F9
:100240000EFA07FE92FAA2FC46EA0E06BCFA8CFCF5
:100250004FEA8C0E4FF0040C26600CFA0EFC92FA5A
:10026000A2F2B2FA82F2CF68920026EA0C06974018
:100270003E4326605B1C35FA03F292D10020F0BDAC
:100280004FF47A71B0FBF1F14FF0E020491E41616B
:10029000002181610521016170470000014908606A
:1002A0007047000000000020FEE77047704770476D
:1002B00070470000194810B5016821F0070101607E
:1002C00000681748016821F0F80141F080010160E1
:1002D000016841F0010101600168C1F3400100299A
:1002E000FAD0416821F0F0014160416821F4E061F9
:1002F0004160416821F460514160416821F003018F
:100300004160416811F00C0FFBD1064C2046FFF70D
:10031000B7FF2046BDE81040FFF7C0BF00200240F5
:100320000010024000127A007047FEE702E008C8A1
:10033000121F08C1002AFAD170477047002001E05F
:1003400001C1121F002AFBD17047000086B00120B6
:10035000FFF712FF2548C16941F08051C161C069B2
:10036000234900F08050009008684FF6FF021040CB
:10037000204A40F44070104308601F48416821F053
:10038000E0614160416841F000714160FFF792FF18
:1003900014216846FFF7CFFE1020FFF7EDFE042082
:1003A000FFF7EAFE164C15484FF40055656101262B
:1003B000CDE9000602200290002003906946204605
:1003C000FFF7E6FE0F48009008200190694604966A
:1003D0002046FFF7DDFEA000A16820EA0101090424
:1003E000090C01D06561F7E72561F5E700100240CF
:1003F0000CED00E00000FA050000014020002004A0
:1004000000100140400040042804000800000020C3
:10041000040000002C0300082C0400080400002045
:0C042000040400003C0300080024F40069
:04000005080000ED02
:00000001FF
